:100000000C948D161895189518951895189518959F
:100010001895189518951895189518951895189578
:100020000C948B0F0C944002189518950C940F1695
:1000300018951895189518950C94B1011895189560
:100040001895189518951895189518951895189548
:100050001895189541A042A1E045A3A4A5A64BA7D9
:100060004D484FA8504354A9AA58E1ABACE2ADAEFD
:1000700062AFB0B161B2B3B4E365B6B7B8B9BABBF9
:10008000BCBD6FBE7063BF79E478E5C0C1E6C2C392
:10009000C4C5C6C7FFFFFFFF0204060802060E1E06
:1000A0000E060200080C0E0F0E0C0800CDE5F20043
:1000B000C4E000AC00B0000000CEF8E8E1EAE020C7
:1000C000F7F2E5EDE8FF21002A20D1E2EEE1EEE4CF
:1000D000EDEE202A0030313233343536373839618D
:1000E0006263646566C7E0EAEBE0E4EAE800D7E84B
:1000F000F2E0EBEAE000CEF2EAF0FBF2FC2E2E2E6C
:1001000000CEF7E8F1F2E8F2FC00CEF7E8F1F2EA0F
:10011000E02E2E2E00E500F600010100004572726F
:100120000A004572430A004461740A005264790A65
:10013000004543530A0072783A200074783A200050
:10014000303132333435363738394142434445460D
:10015000002A20CDE5F220F4E0E9EBEEE2202A00CF
:100160002A20CEF8E8E1EAE021202A00CFF0E5E2FB
:10017000E5E42100534420696E6974206572726F52
:100180007200CFEEE4F1E2E5F2EAE000C2FBEAEB56
:100190000032352500353025003735250031303027
:1001A00025008C019101950199019D0100005344A6
:1001B00020E2E5F0F1E8FF20322E3000C1E0F2E06D
:1001C000F0E5E9EAE000D7E8F2E0EBEAE000CCF3A2
:1001D000E7FBEAE000D1EEE5E4E8EDE5EDE8E50077
:1001E000BC018201C601CE01D5010000CDE0EFF0D7
:1001F000FFE62E20EFE8F2E0EDE8FF3A00566363F9
:100200003D2078782E787820C2EEEBFCF2001B1BA4
:100210001B1B1B1B1B0000000000000000153F20E3
:1002200002203F783F3F203F3F3A3F3F20030007F7
:1002300000080009000A000B000C000D000E001061
:1002400000110013001500170019001C001F0022E8
:1002500000250029002D00320037003C00420049F3
:10026000005000580061006B00760082008F009DF6
:1002700000AD00BE00D100E600FD001701330151C2
:100280000173019801C101EE01200256029202D4CD
:10029000021C036C03C30324048E040205830510AF
:1002A00006AB0656071208E008C309BD0AD00BFFCB
:1002B0000C4C0EBA0F4C110713EE1406175419DC30
:1002C0001BA51EB6211525CA28DF2C5B314B36B97C
:1002D0003BB24144487E4F71572F60CE696274FF34
:1002E0007F2A20CEF8E8E1EAE0202A002A20CFF396
:1002F000F1F2EE202A002A20D3E6E520EFEEEBEE25
:10030000ED202A00CCF3E7FBEAE000C2EEF1EFF0CB
:10031000EEE8E7E2E5F1F2E800C4EEE1E0E2E8F25F
:10032000FC00D3E4E0EBE8F2FC00CEF7E8F1F2E801
:0D033000F2FC000B03190322032A03000056
:10033E003000601309003F1345134B13511347133D
:10034E004D13531356135A139E00600000001000F5
:10035E003E0400008A93FA93EA933A922A921A92F2
:10036E000A927A936A935A934A933A932A931A93D8
:10037E000A938FB7E0E6F0E00281002391F444B1D6
:10038E0055B160E070E006EF10E020E030E00E9432
:10039E003D17012F122F27B1277019F4E0E60083C5
:1003AE001183E0E60281039502838FBF09911991B3
:1003BE0029913991499159916991799109901990A1
:1003CE0029903990E991F991899118950BE206B926
:1003DE0000EC07B900B7006800BFD0980895379AAF
:1003EE0002E310E00E942602369A089522970883AF
:1003FE0000C008810A9509830981088309810023B9
:10040E0011F00000F6CF22960895229608952397B4
:10041E0009831A8309810E94FD010A8108830881DC
:10042E00002349F00DEF13E001501040E9F7088169
:10043E000A950883F4CF239608952396089524975A
:10044E0008831983088119810A831B830A811B8102
:10045E0001501040088319830A811B81012B29F05A
:10046E0008EE13E00E940E02EDCF24960895249616
:10047E000895FA93EA933A932A931A930A931FB71D
:10048E00E3E6F0E02481022F03950483022F23700C
:10049E003081231710F0969A01C096980F3F89F479
:1004AE00E39520812D3240F025B3237E25BBE3E674
:1004BE006894208127F904C0E3E6E3952081239513
:1004CE00208300FBC6F106950770003011F4979A51
:1004DE0032C0013029F401E0E3E6058397982BC082
:1004EE0000FB16F0C49A27C0C498B29B08C0E3E67E
:1004FE0002812581202349F4058125D006C0E3E63B
:10050E0005810095228120232283E3E60581000FD9
:10051E000583B39B07C002812581202341F4058109
:10052E0012D005C005810095228120232283E3E6A7
:10053E000581000F05831FBF0991199129913991EA
:10054E00E991F99118952381202B2383058122812E
:10055E00202B2283E894008107F9008300E0E395C5
:10056E000083089503E6E3E6F0E0E894108117F9BE
:10057E0010830395E02FF083089503B7046003BF43
:10058E0009B7016009BF089502C00E940504E3E6A1
:10059E00F0E003810023C9F30381F383089526E07D
:1005AE00C09A00C000C0C0982A952030C9F7C19AE1
:1005BE00C09A00C000C0C098103009F4C19800C0A5
:1005CE0000C0C09A00C000C0C09814E003FB16F42F
:1005DE00C19A01C0C198000FC09A00C000C0C09857
:1005EE001A95103099F7C19A00C000C000C000C023
:1005FE00C198089510E003E00E94D60205E010E0D5
:10060E000E9426021BD01AD010E002E00E94D602F1
:10061E0000EA0E94FD0108E20E94470308E00E94E2
:10062E00470301E00E94470305E010E00E94260206
:10063E0006E00E9447030CE00C94470310E003E031
:10064E000E94D60200EA0C94FD019A938A93902F91
:10065E00812F202F30E035952795359527953595A7
:10066E00279535952795022F0E94D602182F092F10
:10067E000E94D60200E50E94FD018991999108958C
:10068E0010E00C942C03212F10E027952795279529
:10069E00207C200F2068022F0C942C03003C30F09D
:1006AE00005C0C5AE02FF0E0049109C0102F185A8C
:1006BE0019F0105119F003C002EA01C005EB11E068
:1006CE000C942C03BA93AA93D80103C00E9455032D
:1006DE0011960C910030D1F7A991B99108950E940D
:1006EE004518D801822F03C00E94550311960C9114
:1006FE00003021F0182F8A951030B1F7E4E00C94F9
:10070E0056189A938A93C80103C00E945503019606
:10071E00FC0104910030C9F78991999108959A933B
:10072E008A93902F102F00E00E944A0380E100E28E
:10073E000E9455038A958030D1F7192F00E00E9450
:10074E004A038991999108950E944618C901000F94
:10075E00000F000F00640E944703A0E011E0EA2F93
:10076E00F0E0E80FF91F0491006E0E942C03A39590
:10077E00A830A0F3E3E00C9457189A938A93249729
:10078E00902F812F953610F0833010F0843010F0BA
:10079E0083E00BC09B3020F0823010F482E005C065
:1007AE00923018F0803009F481E020E0E82FF0E07C
:1007BE00EC0FFD1F20839030C1F0092F4AE00E94FC
:1007CE00F216405D8A95E82FF0E0EC0FFD1F408396
:1007DE00092F4AE00E94F216902FEDCF20E38A9562
:1007EE00E82FF0E0EC0FFD1F20838030B9F78E016B
:1007FE000E94690324968991999108950E94461842
:10080E0008E50E94470311E00EEE0E942C0311E052
:10081E000FEF0E942C0388E092E0A0E0E0E6F0E00B
:10082E00008111810817190711E010F00FEF01C0B8
:10083E0001EF0E942C034897A395A53078F311E0A1
:10084E000FEF0E942C03E3E00C9457182CE930E0D4
:10085E0000E00E94AB0324EA30E001E00C94AB030D
:10086E000E943F18C801D901642E772401C07394E9
:10087E00472C5524F201EE0FFF1FEA0FFB1F2591A7
:10088E0034912030304099F700E00E9496038C019D
:10089E000E94880310E00FE00E944A0303E00E94CA
:1008AE0055030E94050403C0803009F06A9401E0EC
:1008BE000E94960300E0601609F400E20E945503C0
:1008CE00862D90E0FC01EE0FFF1FEA0FFB1F059136
:1008DE0014910E94880311E00FE00E944A03420126
:1008EE000FEF800E901E6814990511F400E201C0FE
:1008FE0001E00E9455030E94CB020A95A9F20A95C7
:10090E0049F0025089F2045029F0085051F000517C
:10091E0031F0CDCF8815990554F66394C8CF0FEFFB
:10092E0001C0062DEAE00C94501840E023EB30E0B5
:10093E000E943704013011F401E0089500E008959B
:10094E000E943F18D801722E532E442401C04394A6
:10095E00842D90E0FC01EA0FFB1F00810023B9F704
:10096E0045194395942E172D052D0E944A03662492
:10097E0008C0E62DF0E0EA0FFB1F00810E94550330
:10098E006394641410F46914A0F3882404EB602EAD
:10099E0008C009E1602E83946A940AE010E00E9478
:1009AE00260200916600002351F59414D0F700E062
:1009BE00601691F7172D052D0E944A03662407C075
:1009CE00F0E0EA0FFB1F00810E9455036394691447
:1009DE0000F730E0062D10E0080D131FAC014B5F41
:1009EE005F4F0E941917E42F441550F3E419E030BD
:1009FE0021F0E43010F40AE2E7CF00E2E5CFEAE0BE
:100A0E000C9450180E943918A49759014424552467
:100A1E006624772499240E949B0900E010E0A0161A
:100A2E00B10659F0EA2DFB2D408051806280738013
:100A3E0040E0820193010E945E0A01E00E9496034B
:100A4E0000E00E94960303C02C013D01992462012F
:100A5E007301A0E090E01FC08E010C5E1F4FE22FCD
:100A6E00F0E0E00FF11F3081CCD0308383952395D9
:100A7E00291590F399240A810983A03091F020E082
:100A8E00C0D02083092F0E9496038E010D5F1F4F49
:100A9E000E9469039395923008F05FC080E0EDCF1D
:100AAE00A1E000E0901609F040C0A030F1F50983F6
:100ABE000A83992410C00881093099F30881003205
:100ACE0081F328818E010C5E1F4FE92DF0E0E00FBF
:100ADE00F11F2083939400E1901618F721E08E0108
:100AEE000E94A00A802E0FEF801669F401E00E948A
:100AFE00960300E00E94960309EB10E00E94880323
:100B0E000E94CB0273C000E0801651F201E0400E4D
:100B1E0000E0501E601E701E08810D3019F0088115
:100B2E000A3049F601E00A83BCCF8030A1F030E0F4
:100B3E000FE010E0081B1040091510400CF49FCF79
:100B4E000981002309F09BCF10E2FE013396E80FD6
:100B5E00F31F1083839520E08BCF0E94CB02802E53
:100B6E0001E08016B1F400E0C01604E0D00600E00B
:100B7E00E006F00628F480E090E0A0E0B0E006C0C9
:100B8E00C601D70180509440A040B04033D009F444
:100B9E005BCF02E0801649F4C601D70180509C4F0E
:100BAE00AF4FBF4F27D009F44FCF04E0801649F462
:100BBE00C601D70180529040A040B0401BD009F42E
:100BCE0043CF08E0801609F442CF00E2801671F0A0
:100BDE0000E1801611F600E010E0A016B10631F02B
:100BEE00EA2DFB2DC082D182E282F382A496E0E14F
:100BFE000C944A1840E08C019D010E945E0A01305F
:100C0E0008958E010D5F1F4FE82FF0E0E00FF11FEA
:100C1E0008950E943918EF9723974B837801690145
:100C2E0000E0088308ECA02E00E0B02EBE016C5F41
:100C3E007F4F9501235F3F4F8B01F90140E150E05B
:100C4E000E942C1800E00E94960305EE10E00E9410
:100C5E00880306C00881002319F0102F1A951883F7
:100C6E0001E010E088809924880C991C880C991C4E
:100C7E00880C991C800E911EA4010E94BC16C801FE
:100C8E00D901B4016C5F7F4FAB010E94BC162801E5
:100C9E00390101E00E9496030881002311F000E063
:100CAE0001C000E20E94550300E00A838F3F0FEF60
:100CBE009007A007B007F9F14016500660067006BF
:100CCE00D1F1082F092B0A2B0B2BA9F1042D052985
:100CDE000629072981F18C019D010E94C90922E094
:100CEE008E010C5E1F4F0E94230B013021F500E098
:100CFE0008A38E01085E1F4F0E946903C201D30133
:100D0E0006E009838C019D0144E00E945917C80139
:100D1E00D901AE014C5F5F4FE32FEF70F0E0E40FAF
:100D2E00F51F00810E94550309810A95098351F729
:100D3E0001E00A8303C085010E94880311E00FE0E1
:100D4E000E944A0308810F3011F001E001C000E259
:100D5E000E9455030E94CB020A9509F47BCF0A9597
:100D6E0051F0025009F476CF045029F0085051F09A
:100D7E000051A9F175CF08810F3008F071CF102FF7
:100D8E0013956DCF0B81002399F00A81002309F48E
:100D9E0067CF22E087010E94230B013009F060CF5C
:100DAE00EC2DFD2D408251826282738201E018C0CB
:100DBE00EE2DFF2D0081118122813381A4010E942D
:100DCE00E316EC2DFD2D008111812281338144E04B
:100DDE00840E40E0941EA4010E94E316E7CF00E0CB
:100DEE00EF962396E0E10C944A1800E008830983FD
:100DFE000A830B8308950E944518E29741E09E01F5
:100E0E008E010C5F1F4F0E941006002359F088813F
:100E1E009981AA81BB8111D0081719072A073B07B0
:100E2E0009F004D0E296E4E00C94561840E09E01DE
:100E3E008E010C5F1F4F0C9410069E018E010C5FED
:100E4E001F4F0E940905088119812A813B8108954F
:100E5E00E297CBDF21E08E010C5F1F4F0E94BC0B8F
:100E6E00002339F0C2DFE9DF012B022B032B09F03F
:100E7E00DDDFE29608958A9380E002C00E940207A9
:100E8E00482F25E131E00EEE10E00E943704802F4E
:100E9E000023A1F30A9519F00A9521F02DC00E94A6
:100EAE002F07EECF01E011E00E949C04002341F3D6
:100EBE0001E00E9496030AE011E00E948803E0E040
:100ECE0001E010E06E2F70E0660F771F660F771F40
:100EDE00660F771F600F711F00E010E020E030E01A
:100EEE00AB010E94E3166C5F7F4FAB010E94E316CD
:100EFE00E395E03128F6E4CF89910895F80100E0FA
:100F0E0010E020E030E010C05A3398F4505344E023
:100F1E000E94591708011901052F10E020E030E05A
:100F2E00000D111D221D331D5191503091F0503383
:100F3E0058F7513620F0573610F45755E8CF513444
:100F4E0020F0573410F45753E2CF0FEF1FEF2FEF6F
:100F5E003FEF08950E94451861971801CA01DB0101
:100F6E009E0160E471E08901FB0141E150E00E94C5
:100F7E002C1850E0E82FEF70F0E0EC0FFD1F2081F1
:100F8E00E7E0F0E0E51BF040E20DF31D20838C015D
:100F9E009D0144E00E946117C801D9015395583054
:100FAE0048F300E0E22DF32D00876196E4E00C9407
:100FBE0056180E9441182B97C801D901883E13403C
:100FCE0000E020403040D0F43E0104E0600E00E02E
:100FDE00701E6BD065D0C801D901012B022B032BDB
:100FEE00C1F700E20C8301EE0D8300EE0E8309EED5
:100FFE000F8302EF088700E009874BC0442405C029
:10100E00892F9A2FAB2F59D043948030900700E14F
:10101E00A00700E0B007A0F7AC01BD0104E610E0A8
:10102E0020E030E00E943D17812F922FA32F45D054
:10103E003CD0042F005D0E8338D0C801D90137D0C3
:10104E00042F005D0D8331D0C801D9010EE20C834F
:10105E003E0104E0600E00E0701E27D021D0C801D2
:10106E00D901012B022B032BC1F700E20F83042DB4
:10107E00442029F00A9529F00A9529F006C00AECB9
:10108E0003C00CEC01C003EC088701EC098700E0FB
:10109E000A8783010E9469032B96E8E00C9452188C
:1010AE00042F005DF30102933F018C019D014AE084
:1010BE0050E060E070E00C946917B0E0A69597954B
:1010CE008795A6959795879508950E943B182E971C
:1010DE0016D10DE20E94550319D10DE20E9455035F
:1010EE0088249924AA24BB244424552466247724D6
:1010FE0004C002E211E00E9441160E944F16002326
:10110E0059F4009166000023C1F300E000936600DD
:10111E002E96EEE00C944C1829E08E010C5F1F4FBA
:10112E000E945916D02E8C819D81AE81BF8129E0FF
:10113E008E010C5F1F4F0E945916C02E8E010C5F40
:10114E001F4F0E948507088319832A833B8303E080
:10115E00D01679F600E0C01661F2088119812A8155
:10116E003B810F3F1F4F2F4F3F4F19F2873405E63C
:10117E00900704E7A00700E0B00789F5AB9A088155
:10118E0019812A813B810E94900D002329F40DE1E3
:10119E0011E00E94411621C0C0D00FEF0E9401162F
:1011AE000E943D160197082F092BB9F70E94BD0D1D
:1011BE0000E0800E02E0901E00E0A01EB01E840132
:1011CE001770012B39F4A2D0840195010E94E0071B
:1011DE000E94B9020AE00E943D16AB988ECF803570
:1011EE0005E7900704E7A00700E0B007C9F5AA9A43
:1011FE00088119812A813B810E94C10D002319F4B7
:10120E000DE111E029C089D00E942D160E94011611
:10121E000197082F092BC1F700E0400E02E0501E87
:10122E0000E0601E701E82011770012B39F467D02A
:10123E00820193010E94E0070E94B9020E94D50D1F
:10124E000023F1F20A9519F00A9521F007C00CE27D
:10125E0011E002C001E311E00E944116AA984DCFA1
:10126E00803501E6900702E7A00700E0B00739F5E8
:10127E00AC9A0E94360E088319832A833B83012B76
:10128E00022B032B29F40DE111E00E94411615C02B
:10129E00488159816A817B818E010C5F1F4F0E94AC
:1012AE00B10707E211E00E9441168E010C5F1F4F3D
:1012BE000E9476160AE00E943D16AC981ECF8E3420
:1012CE009546A347B040AC9AA9F424E048815981D1
:1012DE006A81762F652F542F40E0550F661F771FBA
:1012EE0044505E4F6F4F7F4F8E010E94AA0E002317
:1012FE0079F6C9CF02E211E00E944116DECF00E07E
:10130E000E94960306E311E00C94880301E00E940C
:10131E0096030BE311E00C94880307E211E00E94A0
:10132E00411682E092E008955B2F4A2FD801E02FFC
:10133E00F12F05A116A127A130A50DD099960D91DB
:10134E001D912D913C9104871587268737870BD0E9
:10135E00A42FB52F0895EEE3F4E0008711872287BE
:10136E0033870BC006D000E0048305830683078312
:10137E00089500851185228533850083118322838C
:10138E0033830895E8DF0FEF048705870687078705
:10139E00EADF08950E943F18249728013901012B96
:1013AE00022B032B09F44CC00EE3802E04E0902E8A
:1013BE00EEE3F4E011812281338100E01E7F088389
:1013CE0019832A833B8300811181117020E0400E26
:1013DE00511E621E721E01C038D00CEF401601E085
:1013EE00500600E06006700618F104E0400E0EEFA5
:1013FE00501E0FEF601E701E88819981AA81BB81DD
:10140E0033D011F40FEF1DC03BD00F3F1F4F2F4FA6
:10141E003F4F11F7042D05290629072939F4E82D28
:10142E00F92D80839183A283B3830AC000E009C0A3
:10143E0027D0040D151D261D371DE82DF92D9DDF16
:10144E0001E02496EAE00C945018088119812A8153
:10145E0026D0088319832A833B83089516D00081F2
:10146E00118122813381089584509E4FAF4FBF4F1B
:10147E0024E0AC01BD018E010E94AA0E0023089546
:10148E00088119812A813B8108953F4FE62DF0E0B6
:10149E00EE0FFF1FEE0FFF1FE20FF31F0895322F07
:1014AE00212F102F00E0110F221F331F08950E94CD
:1014BE004518C801D901EEE3F4E0048015802680BA
:1014CE003780403021F0800D911DA21DB31D80305C
:1014DE0000E09007A00700E8B00748F404851585E2
:1014EE0026853785081719072A073B0710F400E0F1
:1014FE001DC0081619062A063B0658F48C019D01DC
:10150E0000191109220933090E94D109013071F421
:10151E0007C02FDF8C019D010E94D109013031F4EB
:10152E00EEE3F4E084839583A683B783E4E00C9422
:10153E0056180E943D1824975801822EEEE3F4E0CF
:10154E000485158526853785448155816681778189
:10155E00041B150B260B370B08151040204030408E
:10156E0008F4802E00E0801609F456C0982C77DF20
:10157E00088319832A833B830CEF602E01E0702EC3
:10158E0008811170601A710A10E08614170510F1A7
:10159E00262D4CD011F40FEF3FC09981AA81BB814B
:1015AE0080E09E7F61DFB9F36BDF0F3F1F4F2F4F40
:1015BE003F4F61F4EEE3F4E080839183A283B38323
:1015CE00062D2ED0460D571D621F21C03EDF8618F8
:1015DE00A60CB01E00E0801681F0282D27D0D9F27F
:1015EE0010E0088019802A803B80080C111E211EF5
:1015FE00311E3B822A821982088242DFEEE3F4E03A
:10160E00BCDE092D10E00CD0490D511F611F721F59
:10161E0077836683558344832496ECE00C944E18AE
:10162E0020E04481558166817781089548815981F2
:10163E006A817B81850120CF0E944418D801422EF9
:10164E008EE394E0203001F50E94360E402F412BA0
:10165E00422B432B11F40FEF77C00150104F2F4F39
:10166E003F4F3695279517953695279517953695AD
:10167E002795179500E01E7F3F716DDE048305836D
:10168E000683078301E060C0213081F4EEE3F4E0CD
:10169E0069DE04E0401679F441E002E01FEF2FEF1F
:1016AE003FEF0E945E0A013031F04EC0233089F7C1
:1016BE004ED079F349C0E82FF92FD1DE0D931D934B
:1016CE002D933C93139700E0EA2FFB2F04A320E207
:1016DE008D010C5F1F4F0E94A00A003229F00030CE
:1016EE0011F400E031C0B7CF41E00AE332D009F087
:1016FE00B2CF29E08D010B5D1F4F0E94A00A093069
:10170E0009F0A9CF41E00DE91FEF2FEF3FEF0E9447
:10171E005E0A013009F09FCFEA2FFB2F05A50F3F80
:10172E0061F005A116A127A1BADE05A316A327A372
:10173E0030A705A5007105A7A5CF04E0401609F452
:10174E00A8CF05D009F4A5CFE5E00C94551841E0DB
:10175E000EEF10E020E030E00E945E0A01300895A6
:10176E008D010C5F1F4F0C9469030E943918EF977F
:10177E00A2972883D801662469826A826B826C8262
:10178E0069AA6AAA6BAA6CAA8EE394E00FEFEEE345
:10179E00F4E0048705870687078700E00E9496031A
:1017AE0000E0601681F420E011D10F3F41F400E615
:1017BE0011E00E9488030E94CB020FEFF6C00FE2E9
:1017CE000E9455032BC09E012F5F48DEE82FF92F94
:1017DE00008711872287338721E0F8D0013039F74F
:1017EE00EA2FFB2F05A5002311F305A116A127A1B2
:1017FE0030A5E82FF92F00871187228733874424DD
:10180E0001C04394242D30E0F901EA0FFB1F2F3065
:10181E0018F404810023A9F7CDD0A2DFE82FF92F09
:10182E00A1DD40E09E012F5C19DE0E945E0A0023BE
:10183E0029F0CBD0402E0FEF401639F401E00E9474
:10184E00960300E00E949603B2CF772400E0701654
:10185E0009F0A3CF01E00E94960300E0401629F4A0
:10186E0001E511E00E94880314C0EA2FFB2F05A5A5
:10187E00002371F0442401C04394242D30E0F9017B
:10188E00EA0FFB1F2F3018F404810023A9F792D022
:10189E0067DF552446C024E099D0402E0FEF401646
:1018AE0079F5CCCF23E092D0402E0FEF401641F5C4
:1018BE00C5CF00E0501621F10BE0601608F59E0131
:1018CE002F5CE3DD80829182A282B3826394262D07
:1018DE0030E0220F331F220F331FFE013196E20F2D
:1018EE00F31FC082D182E282F38240E0FE01F196C4
:1018FE00E20FF31F40834183428343837724739423
:10190E0000E0401609F0A2CF701609F09FCFE82F25
:10191E00F92FC082D182E282F38284829582A682DE
:10192E00B78200E0401669F0E82FF92FC080D18011
:10193E00E280F38084809580A680B780EA2FFB2F0B
:10194E0055A444240E94CB020A9571F00A9509F41D
:10195E00B0CF025009F49FCF045009F4A3CF085022
:10196E0041F0005109F1CCCF00E0601649F26A94C3
:10197E00C5CF00E0501619F0088101FB46F000E0DB
:10198E00501609F0BDCF088100FB0EF0B9CF40E034
:10199E00840195010E945E0A013019F416D00130BF
:1019AE0009F00BCF01E001C000E0EF96A296E0E156
:1019BE000C944A180FE2048310E02F5F3F4F2A0F5A
:1019CE003B1FE22FF32F1483089522E08D010C9418
:1019DE00230B8A932497488359836A837B83802FB2
:1019EE0019D00F3FE9F78064082F0E9401160B8172
:1019FE000E9401160A810E94011609810E94011699
:101A0E0008810E94011605E90E940116249689910B
:101A1E000895AD980FEF0C9401168A9380E001C0E3
:101A2E0083958F3F19F0F6DF0F3FD1F3899108951B
:101A3E00229740E0488349831BC0F80151918F01E2
:101A4E0048E0098068817981660F771F6883798302
:101A5E00652F6025607841F061E270E12880398061
:101A6E002626372639822882550F4A95403049F767
:101A7E00A90121503040452B01F70881198122968A
:101A8E0008950E944518B0E0AD9880E0AAE0C2DF4C
:101A9E00AA95A030E1F7AD9A05C00AE010E00E94C9
:101AAE0026028395803130F428D000E02ED0902F7E
:101ABE00913099F79130E1F480E005C00AE010E032
:101ACE000E9426028395803130F417D001E01DD09C
:101ADE00902F903099F7903059F40FD00DE015D02B
:101AEE00802F0E94140D002311F0803009F4B1E014
:101AFE0090DF0B2FE4E00C94561840E050E060E0CD
:101B0E0070E00895AC01BD0101E10E94F00C0C944F
:101B1E00140D0E9444181CD0B1F4F4DF002399F484
:101B2E0080E090E001C001968F3F0FEF900731F0FB
:101B3E000E94140D402E0FEF4016A9F30EEF401623
:101B4E0011F401E002C065DF00E0E5E00C945518E9
:101B5E00C801D901AD9A40E052E060E070E000E1CA
:101B6E000E94F00C0E94140D00230895AD980FEF03
:101B7E000C9401160E944518EBDF59F4AC01BD011F
:101B8E0008E1C3DF002329F40EEF0E94011601E0E5
:101B9E0002C03FDF00E0E4E00C9456188A9380E028
:101BAE000E94140D0F71055021F0065019F482E0B9
:101BBE0001C081E02EDF082F899108950E943F1801
:101BCE0022972801CA01DB01722E632E9924AD9A49
:101BDE00422F50E060E070E000E197DF0023C9F58E
:101BEE0091DF0023B1F580E090E001C001968F3FB8
:101BFE000FEF900731F00E94140D802E0FEF80161C
:101C0E00A9F30EEF801629F5A0E0B0E007C00E9400
:101C1E000116FD01E40DF51D00831196872D90E050
:101C2E00A715B9070FEF98F30E9401160983F2DE8C
:101C3E000883691661F0A881B9819C0182010E9416
:101C4E001F0DA017B10719F002E0902E02C09924C3
:101C5E009394DFDE092D2296EAE00C9450180E9430
:101C6E004218629780E090E0A0E0B0E0AD9A45DFC8
:101C7E0009E04BDF002309F05FC04424552404C063
:101C8E0001E0400E00E0501E0FEF4016500631F0FE
:101C9E000E94140D602E0FEF601691F30EEF60167A
:101CAE0009F04AC044245524B5DEFE013296E40DF7
:101CBE00F51D008301E0400E00E0501E00E14016CD
:101CCE0000E0500688F3A6DE0983A4DE088320E137
:101CDE0030E08E010E5F1F4F0E941F0D288139814B
:101CEE000217130749F508850370102F110F110FF6
:101CFE00298530E0220F331F220F331F312B0A8527
:101D0E00069506950695069506950695022B132FB4
:101D1E000F5F1F4F20E030E04B854370440F5C8512
:101D2E00550F50E0551F542B4F814F70450F4750A4
:101D3E000E945917C801D9016CDE8C019D01629673
:101D4E00E7E00C9453180E9441182801CA01DB01E8
:101D5E00722E203011F401E013C0662401C063948A
:101D6E0004E0601660F431E0272DAC01BD01820164
:101D7E000E94E50D003019F0013089F7ECCF00E03C
:101D8E00E8E00C94521821E830E0A9010E94AD164B
:101D9E00053010F40093630008958A93E3E6F0E0B3
:101DAE00E894008107F9008384E000916300801BB2
:101DBE00482F22EA31E002E811E00E9437040F3F7B
:101DCE0069F0801759F014E0101B10936300009116
:101DDE00630021E830E0A9010E94CE168991089592
:101DEE000FEF0ABB03EB07BB0FEF04BB0EEF01BBFC
:101DFE000AE010E00E9426020E94CA0E0E94010311
:101E0E000E942D040E94C4020E94821602E00E94CB
:101E1E0006160E94480D002341F404E711E00E94CB
:101E2E00880300E010E00C94F01605E00E94061600
:101E3E000E941C100E94ED010CE611E00E94880326
:101E4E007894089500E00E9496030CEE11E00E9433
:101E5E00880301E00E9496030DEF11E00E948803B3
:101E6E0014C011E005E00E944A0317D012E00E9450
:101E7E00C4030EE20E94550310D0042F12E00E94FC
:101E8E00C40302E310E00E942602009166000023C4
:101E9E0041F300E0009366000895E0E6F0E0008173
:101EAE00118144E650E00C9400179A938A9380E0D7
:101EBE0003C00E946C08892F482F20EE31E00EEAF5
:101ECE0011E00E943704902F9F3FB1F3002349F099
:101EDE000A9551F00A9559F00A9561F00A9549F361
:101EEE00EACF0E94290FE7CF0E94D40EE4CF0E94C2
:101EFE004207E1CF0E945A14DECF0E94F70E0E94D5
:101F0E00F6010E945C0F8DCFFA93EA935A934A938F
:101F1E003A932A931A930A931FB702E0E9EEF0E080
:101F2E002685202726870685033009F474C051853F
:101F3E000085501709F46FC0E52FE7594081E52F52
:101F4E00E7550081242F30E0225E3F4F3BBD2ABD76
:101F5E00202F30E0225E3F4F39BD28BD53955F7371
:101F6E00E9EE5187E3E6208127FB0EF454C0E9EE3B
:101F7E002485222309F04CC046950695040F00587F
:101F8E00003818F02FEF201B022F30E044815581CE
:101F9E00400F531F5583448305850023A1F505B3D8
:101FAE00037E05BBEC5F21813595279535952795E9
:101FBE0035952795022F083008F007E00A9569F04D
:101FCE000A9569F00A9571F00A9579F00A9579F0FB
:101FDE000A9579F00A9581F012C0AA9A10C005B33D
:101FEE0004610CC005B30C6009C0AB9A08C0AC9A72
:101FFE0006C005B3086102C005B30C6105BB20E045
:10200E00E9EE2483258305850395058703E0048780
:10201E0004850A9504871FBF099119912991399159
:10202E0049915991E991F99118952EE032E002E02B
:10203E000E94AB0326E132E004E00C94AB03A9014D
:10204E00E9EEF0E00687268337838A011695079519
:10205E0020E030E000501C4D2B403F4F60E070E020
:10206E000E948F1717BD06BD0EE110E01BBD0ABD05
:10207E0019BD08BD02EA0FBD09E10EBD09B7046026
:10208E0009BF089509B70B7F09BF00E00FBD0EBD54
:10209E0008950E944518C801A9EEE9EEF0E0B0855A
:1020AE000EC01DD01B2F13951F73EA2FF0E0218554
:1020BE001217D9F3EB2FE759008314D00197082F8D
:1020CE00092B79F7E4E00C945618E92FE7550083B5
:1020DE00912FE82F10870FEF400E501E08950FEF2F
:1020EE000C940116EB2FE7550083B12FEA2F1087C2
:1020FE0008950E944418C801A9EEE9EEF0E0B085FB
:10210E0010C0EDDF402EEBDF1B2F13951F73EA2F50
:10211E00F0E021851217D9F3EB2FE7594082E2DF69
:10212E000297823000E0900760F7892B09F0D7DF25
:10213E00E5E00C9455180E9443182497280189EE67
:10214E00E9EEF0E09085A285D2D022C0040F151FD3
:10215E00261F371F3B832A831983088300301048BC
:10216E002040304044F00FEF1FE720E030E00883BE
:10217E0019832A833B8309810058192F13951F73E6
:10218E00E82F21851217E1F3E92FE75900839DDF30
:10219E00042D052909F48EC0A2DF95D00CF4A0E021
:1021AE00A9350CF0A8E502FB16F4A90102C040E027
:1021BE0050E03695279501FB16F4420F531F3695C6
:1021CE00279500FB16F4420F531F36952795420FA5
:1021DE00531F03FB60E070E0088019802A803B806B
:1021EE006EF4041A150A260A360A8BD06F4F7F4FEB
:1021FE00ACF440E050E86FEF7FEF0CC0040E151EFC
:10220E00261E371E7ED06040704044F04FEF5FE7D1
:10221E0060E070E0488359836A837B83298120586C
:10222E00192F13951F73E82F31851317E1F3E92F3B
:10223E00E7592083E92FE7552083912FE82F108748
:10224E0002950F7040D00CF4A0E0A9350CF0A8E573
:10225E0002FB16F4A90102C040E050E03695279526
:10226E0001FB16F4420F531F3695279500FB16F40B
:10227E00420F531F36952795420F531F03FB60E005
:10228E0070E0088119812A813B810EF05FCF041B1B
:10229E00150B204030403B832A831983088300307E
:1022AE0010482F4F3F4F0CF066CF00E010E82FEF95
:1022BE003FEF5DCFA2870881198100831183249699
:1022CE00E6E00C9454182FE232E0EA2FFA2FFF0FBB
:1022DE00FF0BEE0FFF1FE20FF31F25913491E02F3E
:1022EE00E770EC56F0E00490A00DA0300895008148
:1022FE001181212F220F220B088319832A832B830E
:10230E0008953B822A8219820882402D512D622D1A
:10231E00732D4030504808950E9443182897280185
:10232E0089EEE9EEF0E09085B285E1DFA3850281CA
:10233E001381212F220F220B0C831D832E832F83BB
:10234E001DC0400F511F621F731FBAD02040304076
:10235E0044F00FEF1FE720E030E00C831D832E8347
:10236E003F830D810058192F13951F73E82F218578
:10237E001217E1F3E92FE7591082A7DE042D052984
:10238E0009F48BC0ACDE202E0FE212E0EB2FFB2FF8
:10239E00A2D0E770EC56F0E00490B00DB0300CF423
:1023AE00B0E0B9350CF0B8E522FA16F4890102C096
:1023BE0000E010E03695279521FA16F4020F131F50
:1023CE003695279520FA16F4020F131F369527958A
:1023DE00020F131F23FA20E030E0488159816A81F1
:1023EE007B816EF4401B510B6040704064D02F4FC8
:1023FE003F4FACF400E010E82FEF3FEF0CC0400F62
:10240E00511F621F731F57D02040304044F00FEF12
:10241E001FE720E030E0088319832A833B8319806D
:10242E0000E8100E22940FE020220FE212E0EA2FB5
:10243E00FA2F51D055DF0CF4A0E0A9350CF0A8E529
:10244E0022FA16F4890102C000E010E036952795B5
:10245E0021FA16F4020F131F3695279520FA16F45B
:10246E00020F131F36952795020F131F23FA20E034
:10247E0030E04C815D816E817F810EF062CF401B1A
:10248E00510B604070401CD02F4F3F4F0CF069CF66
:10249E0000E010E82FEF3FEF60CFB287088119817F
:1024AE0000831183A3870C811D81028313832896D9
:1024BE00E6E00C9454187B836A835983488304C0E6
:1024CE007F836E835D834C83042F152F262F372F2A
:1024DE00003010480895FF0FFF0BEE0FFF1FE00FA7
:1024EE00F11F25913491E22D0895488159816A8119
:1024FE007B814083518362837383982FA3950895C4
:10250E008A93802F10E000E00E944A030EE112E051
:10251E000E94880310E000E00E944A03082F0E94E8
:10252E00550310E004E00E944A03827019F08250B5
:10253E0019F005C001E301C002E30E94550310E04B
:10254E0006E00E944A03E9EEF0E0068117810C5086
:10255E001E4F48EE53E00E94001712E00E94C40383
:10256E0089910895BA93AA93D80110E009E00DD08D
:10257E0012E00E94C40310E00CE007D0042F12E01A
:10258E000E94C403A991B99108950E944A038D0136
:10259E004CE350E00C9400178A93802F10E002E079
:1025AE000E944A038395082F0E945503899108952E
:1025BE000E9439182B9709871A8700E00C830B832A
:1025CE000A830983E9EEF0E000830183028303832B
:1025DE000287F3878984912EE82DF12FC1A4D2A40E
:1025EE00E3A4F4A405A116A127A130A50D831E8393
:1025FE002F83388703E0C01600E0D006E006F00611
:10260E0008F449C10D811E812F8138850E94900DDD
:10261E00002329F405B3037E05BB0FEF40C15FDD38
:10262E0008835DDD1EEFC10E1FEFD11EE11EF11EF0
:10263E001AEFA12E11E0B12E1881187F103509F076
:10264E001DC1003031F0003308F418C1093308F011
:10265E0015C111E01C83003039F4088100FB16F41B
:10266E0016E301C013E3012FEEE3F3E00C94CD1754
:10267E0001E0098300E8402E0EE318C001E0098353
:10268E0002E2402E06E512C001E0098300EC402E66
:10269E000DE50CC001E0098344240DE707C004E4F6
:1026AE00402E0CEA03C000E8402E0BEB502E6624A1
:1026BE007724C201D3010981002321F0B695A79595
:1026CE0097958795088101FB26F4880F991FAA1FFD
:1026DE00BB1F02FB26F4B695A79597958795920199
:1026EE0009810E94261008810E94871200E00E9434
:1026FE00D31201E00E94960320E184010C5F1F4F6C
:10270E000E94760300E001C00395E02FF0E0E80D93
:10271E00F91D14811123C1F7013138F011E00FE0DA
:10272E000E944A0304E00E945503E894088100F9D0
:10273E0008830AC082010E94501020E0C418D508F8
:10274E00E20AF20AA418B5080C2D0D290E290F293C
:10275E0009F492C00A2D0B2909F06EC0C0DC0D835E
:10276E00BEDC0E83BCDC0F83BADC0887B8DCB7DCBA
:10277E000E94BD0D0D811E812F8138850F3F1F4F89
:10278E002F4F3F4F39F40E94491005B3037E05BB0E
:10279E0001E085C000916600002329F100916600DA
:1027AE000023E1F300916600045069F3045029F010
:1027BE00085039F0005139F310C000E00093660064
:1027CE00E2CF0A81002311F401E001C000E00A8388
:1027DE000E94D31205B3037E05BB00E00093660092
:1027EE000A810023D9F60B810F7151F486019701EE
:1027FE00AC01BD010E9469170E94B9120E94050426
:10280E001B8113951B830D811E812F81322F212F4A
:10281E00102F00E0110F221F331F0D831E832F83F5
:10282E0038870E94900D002319F40E944910F2CEB1
:10283E000CEFA02E01E0B02E20E0CA14DB04E2065D
:10284E00F20610F0250101C026010881005509F499
:10285E0071CF025069F0025039F0025009F06DCF7D
:10286E0082010E94931169CF82010E94A21065CF4E
:10287E0082010E94801061CF0E94491006E0A00ED6
:10288E0000E003C02CDC0FEFA00EB01E0A2D0B29AA
:10289E00C9F70E94BD0D05B3037E05BB0C812B96B7
:1028AE00E0E10C944A180E944418EF97EF97EF97C7
:1028BE006F97DA95A0E090E0B0E080E06DD1F0F394
:1028CE0000E00E94960304E013E00E948803A0300B
:1028DE0041F401E00E9496030CEE12E00E94880380
:1028EE003DC0892FB13049F4082F10E00F5F1F4F04
:1028FE0040E650E00E940017842FB23049F4082FB2
:10290E0010E0015A1F4F40E650E00E940017842F3E
:10291E00803620F531D1402F412B422B432BC9F06D
:10292E0063D10F3F51F401E00E94960301EE12E0D5
:10293E000E9488030E94CB0217C19E01225D3F4F69
:10294E00BE018901FB014EE250E00E942018982F33
:10295E0005C0B03009F48395803620F2B0E0A03087
:10296E00D9F0442480E007C007D1012B022B032BA2
:10297E0009F0439483959817B8F710E00BE00E9486
:10298E004A0312E0042D0E94C4030FE20E94550375
:10299E0012E00A2F0E94C403A03059F001E00E94F9
:1029AE0096034FE030E021E08E010E5C1F4F0E9437
:1029BE00A7040E94CB02402E04E0401611F4B2E0B0
:1029CE007FCF08E0401611F4B1E07ACF00E1401657
:1029DE0009F0C6C0A03019F44424439408C040E066
:1029EE0023E333E004E013E00E943704402E00E0BE
:1029FE004016E1F5892F1AC04A94481671F00FEF70
:102A0E00401611F40FE5402E8E01045A1F4FE42D8F
:102A1E00B7D0012B022B032B79F3842D8A9500E07E
:102A2E00009366008395803609F480E0A5D0402F90
:102A3E00412B422B432BB1F3D7D0013041F40E94EE
:102A4E00B9028E010E94DF120F3F09F46CCF009184
:102A5E006600003229F400E000936600982F30CF14
:102A6E00009166000430D9F6482EC6CF01E040161C
:102A7E00E9F5A03649F40E94960306EF12E00E9493
:102A8E0088030E94CB021CCF23E08E010E94BC0B58
:102A9E000DA5002369F4892F07C08395803608F0B1
:102AAE0080E0891709F40CCF8AD0B9F71EDD08CF64
:102ABE000DA11EA12FA138A597D0013009F000CF8E
:102ACE000DC08395803608F080E0891759F423E015
:102ADE008E010E94230B013009F0F2CE0DA50023CA
:102AEE00B1F7892F6CD069F700DDF1CF02E0401607
:102AFE0031F58E01045A1F4FE92F42D0012B022BC4
:102B0E00032B09F4DDCE00E00083018302830383EF
:102B1E00AA95892F8395803629F02ED0012B022B72
:102B2E00032BC1F3803651F4892F01C08A95803072
:102B3E0029F022D0012B022B032BC1F38FCF03E000
:102B4E00401609F0BDCE0AE213E00E949C04002359
:102B5E0009F4B6CE80E020D0F0F3A0E090E0B0CE45
:102B6E0000E2401609F018CFEF96EF96EF966F96AB
:102B7E00D395E5E00C9455188E01045A1F4FE82F9B
:102B8E00F0E0EE0FFF1FEE0FFF1FE00FF11F0081B1
:102B9E00118122813381089500E0AE01445A5F4FC6
:102BAE00E82FF0E0EE0FFF1FEE0FFF1FE40FF51FF3
:102BBE0000830183028303838395803608959E01EB
:102BCE00245A3F4F082F10E0000F111F000F111F46
:102BDE00020F131FE02FF12F40815181628173810B
:102BEE00452B462B472B08950E94C90922E08E01E2
:102BFE000C94230B0FB9779BFECF0FB10895102FB6
:102C0E00137018651DB90695069501700EB90895D5
:102C1E00FA93EA933A932A931A930A930FB73CB115
:102C2E00E8EFF0E01481139513702581121731F03F
:102C3E0024812850E22F3083E8EF14830FBF0991CF
:102C4E00199129913991E991F9911895E8EFF0E0F0
:102C5E00048125810217D1F305810850E02F0081F0
:102C6E00E8EF258123952370258308955D9BFECF84
:102C7E000CB908959A938A93C80103C001960E94D5
:102C8E003D16FC0104910030C9F789919991089580
:102C9E00E8EFF0E015810481101711F001E00895BE
:102CAE0000E008950E944418D801422E80E090E082
:102CBE0005C0FC01EA0FFB1F0083019610E084158E
:102CCE00910724F40E942D16003099F700E0FC01C4
:102CDE00EA0FFB1F0083082FE5E00C945518BA93FA
:102CEE00AA93D80102C00E943D160D910030D9F76B
:102CFE00A991B991089502E00BB908E90AB906E85D
:102D0E0000BD00E109B900E000BD08950EE30350D7
:102D1E000DBF04E000400EBFCEEFD3E00E9461185D
:102D2E00002311F00E94731800E00BBF0E94840F65
:102D3E000E94F0160C949018E199FECF08954F5F03
:102D4E005F4FFADF4EBB5FBBE09A0895FADF0DB31B
:102D5E000895F7DF0DB3F3DF1DB30895F2DF0DB362
:102D6E00EEDF1DB3ECDF2DB30895EBDF0DB3E7DF20
:102D7E001DB3E5DF2DB3E3DF3DB308954F5F5F4F26
:102D8E004EBB5FBBF894E29AE19A0FBE08950FB660
:102D9E00D3DF0DBBF5CF0FB6CFDF0DBBF1DFCCDF31
:102DAE001DBBECCF0FB6C8DF0DBBEADFC5DF1DBB09
:102DBE00E5DFC2DF2DBBE2CF0FB6BEDF0DBBE0DF1E
:102DCE00BBDF1DBBDBDFB8DF2DBBD8DFB5DF3DBB07
:102DDE00D5CF0C9490180024E8E0EA9532F0001F4D
:102DEE00001C0416D0F3041AF8CF001F402D0095D6
:102DFE00089500241124EFE0001F111F001C111C68
:102E0E000416150610F0041A150AEA95AAF7001F03
:102E1E00111F402D512D00951095089551954195F6
:102E2E0050400895FF27552312F4F160F7DF112368
:102E3E0012F4F09507D00E940017F0FD03D0F1FDBB
:102E4E00EDCF089511950195104008953095209578
:102E5E00109501951F4F2F4F3F4F08957095609518
:102E6E00509541955F4F6F4F7F4F08950024112469
:102E7E0022243324E02FE12BE22BE32B71F0369545
:102E8E0027951795079520F4040E151E261E371E3E
:102E9E00440F551F661F771FEDCF002D112D222DCC
:102EAE00332D08954A952AF0000F111F221F331F4C
:102EBE00F9CF08954A952AF03695279517950795D7
:102ECE00F9CF08950024112422243324E0E2EA9558
:102EDE0092F0001F111F221F331F001C111C221CF9
:102EEE00331C041615062606370688F3041A150A2F
:102EFE00260A370AECCF001F111F221F331F402D49
:102F0E00512D622D732D00951095209530950895B5
:102F1E00FF2777231AF4F1600E94351733231AF432
:102F2E00F0950E942D170E946917F69510F40E94D5
:102F3E002D17F69510F40C94351708954192519271
:102F4E006192719281929192A192B192C192D1921B
:102F5E00E192F19241905190619071908190919097
:102F6E00A190B190C190D190E190F1905FD0702D71
:102F7E005DD0602D5BD0502D59D0402D57D0102CE8
:102F8E0001FA54D0202C52D0302C0895F5DF041BBA
:102F9E0010E003C0EFDF041B150B20E030E005C08E
:102FAE00E5DF041B150B260B370BE0F010FC1DC0E4
:102FBE003DD0402D3BD0E00FF11F0417100540E02F
:102FCE002407340778F446F4C895002D0024E22D2A
:102FDE00F32DE01BF0090994E00FF11F27D0202CF0
:102FEE0025D0302CE22DF32D099411F4BEF7ECCF41
:102FFE0031960EF0319650E060E070E017D0402D23
:10300E004B3F68F079F34F3F41F04E3F21F00ED029
:10301E00702D0CD0602D0AD0502D08D0402D041BE1
:10302E00150B260B370B11F3E8F2E2CFC89531964C
:10303E000895AF93BF93B12FA02F01900D924150E1
:10304E005040D9F7BF91AF910895AF93BF93B12F71
:10305E00A02FC89531960D9241505040D1F7BF9197
:10306E00AF910895FA92EA92DA92CA92BA92AA921D
:10307E009A928A927A926A925A924A92BA93AA93A0
:10308E009A938A930895FF84EE84DD84CC84BB8466
:10309E00AA84998488847F806E805D804C80BB81F9
:1030AE00AA8199818881F0E00FB6F894CE0FDF1FC8
:1030BE000FBE089501E0089520E02D9301501040B9
:1030CE00202F212BC9F7089505900D920150104025
:1030DE00202F212BC9F7089586E593E0FC01059179
:1030EE001491FC013296A591B491FC013496459150
:1030FE00549130E04030530721F0FA010E946B18D2
:10310E0002C00E946318069613E08236910730F3D0
:0C311E0008950C94931800008895FECFD3
:00000001FF
